:020000040000FA
:10000000181020208D0100009101000093010000D4
:1000100000000000000000000000000000000000E0
:10002000000000000000000000000000950100003A
:10003000000000000000000097010000F521000012
:100040009B010000491600009B0100009B0100007D
:100050009B0100009B0100009B0100009B01000030
:10006000000000009B0100009B0100000000000058
:10007000000000009B0100009B01000059220000CD
:100080009B0100009B010000112200009B01000069
:100090009B0100009B010000000000000000000028
:1000A0009B0100009B010000000000000000000018
:1000B0009B010000000000009B0100009B0100006C
:1000C00000F002F800F052F812A030C808382418E6
:1000D0002D18AC4201D100F049F80FCCA246AB4636
:1000E0000CA730CF2D1B083F3F197C427F1E544484
:1000F0002D090426F441641EAC4201D300F036F809
:100100000126334200D0FB1A3343984754465D46DC
:10011000DFE70000BC570000DC57000000000000D3
:10012000103A02D378C878C1FAD8520701D330C840
:1001300030C101D504680C60704700000000000069
:100140007047000000000000002300240025002666
:10015000103A01D378C1FBD8520700D330C100D583
:100160000B6070471FB51FBD10B510BD00F0BCFD82
:100170001146FFF7F7FF02F0D9FE00F0D4FD03B4FB
:10018000FFF7F2FF03BC00F029FE0000064800471D
:10019000FEE7FEE7FEE7FEE7FEE7FEE70348044969
:1001A000044A054B70470000C100000018082020D9
:1001B00018102020180C2020180C202001E004C06A
:1001C000091F0429FBD28B0701D50280801CC907B7
:1001D00000D00270704700290BD0C30702D0027014
:1001E000401C491E022904D3830702D50280801CCB
:1001F000891EE3E70022EEE70022DFE70022030981
:100200008B4273D3030A8B4258D3030B8B423CD3EC
:10021000030C8B4221D312E003460B437FD4002210
:1002200043088B4274D303098B425FD3030A8B428A
:1002300044D3030B8B4228D3030C8B420DD309020A
:10024000FF2212BA030C8B4202D31212090265D0AC
:10025000030B8B4219D300E0090AC30B8B4201D375
:10026000CB03C01A5241830B8B4201D38B03C01ABC
:100270005241430B8B4201D34B03C01A5241030B33
:100280008B4201D30B03C01A5241C30A8B4201D3E4
:10029000CB02C01A5241830A8B4201D38B02C01A8F
:1002A0005241430A8B4201D34B02C01A5241030A06
:1002B0008B4201D30B02C01A5241CDD2C3098B42EB
:1002C00001D3CB01C01A524183098B4201D38B0168
:1002D000C01A524143098B4201D34B01C01A52410B
:1002E00003098B4201D30B01C01A5241C3088B4250
:1002F00001D3CB00C01A524183088B4201D38B003B
:10030000C01A524143088B4201D34B00C01A5241DC
:10031000411A00D201465241104670475DE0CA0FB3
:1003200000D04942031000D3404253409C46002273
:1003300003098B422DD3030A8B4212D38901FC227D
:1003400012BA030A8B420CD3890192118B4208D353
:10035000890192118B4204D389013AD0921100E0B5
:100360008909C3098B4201D3CB01C01A52418309C9
:100370008B4201D38B01C01A524143098B4201D3F6
:100380004B01C01A524103098B4201D30B01C01A21
:100390005241C3088B4201D3CB00C01A524183089B
:1003A0008B4201D38B00C01A5241D9D243088B42F1
:1003B00001D34B00C01A5241411A00D201465241AA
:1003C000104663465B1001D34042002B00D54942E2
:1003D000704763465B1000D3404201B504490028D2
:1003E00002DC491C084000E00846C046C04602BD89
:1003F000FFFFFF7F70477047704700000246C80F3D
:10040000C00781434B0030B54B405B009B0D20D0B3
:100410001923DB06C91801231B05994220DB03249D
:10042000A40704251346AB400BD3002B04D1EB06E5
:1004300013409B00E34204D40124640700231219F3
:100440005941FF231B0599420BD2C9000143500FAC
:1004500009E0CB0204D501430803024305D0054857
:1004600030BDFF21C905084330BD084607210905F5
:10047000884330BD0000C07FF0B5F94D0C091E095E
:100480002C402E402F468BB0A7437DD0B543FCD0E7
:10049000002E7AD0002CFCD00D465D40ED0F254398
:1004A000AC1BFF25AD0464190894C502440DC902B4
:1004B0002143500DDC0204430120C00701430443E3
:1004C000D2020191200C110C00958C4601042346A8
:1004D0008B430A9161460904E24D8A430991010A5E
:1004E0007D4449198039097805464D4301266D1828
:1004F000F605751B6943C90C640B891C4C436418D1
:10050000B5012C1B250C2E04B4434C434D43210C48
:10051000691889090591009DE90701D00121C907E2
:1005200004912C4601996708CD072F434C08059D7F
:10053000E10B4D432D0C29466646754302950D4649
:1005400045432E46029D7D1BB44100950D465D43FB
:1005500001942C0C2F040D465543AE462D0C3D4303
:10056000029503947546049C2D04641B049406D2E2
:10057000029C039D641C002675410395029401AC06
:1005800070CC009F7D1B01E03EE162E1B4410904B3
:100590000095079101940599A4086143090C0C4644
:1005A0004443650BE7040C4666467443A646640B59
:1005B0003C43039502947446049DE4042C1B04946C
:1005C00006D2029C039D641C00267541039502948B
:1005D00001AC70CC009F7D1BB44101940C465C4380
:1005E0000095650FE7000C465443A646640F3C4354
:1005F000039502947446049DE4002C1B049406D2D7
:10060000029C039D641C002675410395029401AC75
:1006100070CC009F7D1BB441AE09AF06049DC9009C
:10062000AD092F43049DA406AD060495079D3443F0
:1006300069180791059DE10B4D432D0C294666462F
:10064000754302950D4645432E46029D7D1BB441E0
:1006500000950D465D4301942C0C2F040D46554327
:10066000AE462D0C3D43029503947546049C2D0423
:10067000641B049406D2029C039D641C00267541F1
:100680000395029401AC70CC009F7D1BB441019492
:100690008C050694079C890A611800950791019CB6
:1006A0000599A4086143090C0D464543680BEF0406
:1006B0000D46644665436C0B3C43049FED047D1B73
:1006C000AC4602D20025641C6841009E019D371B88
:1006D00085410846584301950C46460FC5005443D2
:1006E000600F28436546E4002C1B02D20025401C05
:1006F0006E41019D3F1AB5412846BD098006284339
:100700008446A009BF064E020699A4067618074340
:10071000079D002068410A99079019430020099B12
:1007200000906046FF1913434041E20F64003A43D2
:10073000A4460446D71A8C41A04203D90120009058
:1007400020463A46C70F941840416246D20F2243D2
:10075000644664000494009CBE466400D71AA44614
:10076000044602978C417746002F01D1A04204D95C
:100770006046401C8446029A2046C40FA646941840
:100780004041049A0546D20F224364466400D31ABE
:100790008D417146002901D1A84202D928461A4646
:1007A000641C10430122002800D01643610200207F
:1007B000079B891904465C410223002C02DB49187F
:1007C00013466441089DCE0A2D145D194B0567053B
:1007D000E10A2C050D1908993E43C9076940002B11
:1007E00008D0934006D30022761C5141002B01D142
:1007F000760876001C4A002D43DB154241D0AA43FF
:100800003FD030460BB0F0BD06180D464D41174C99
:100810007642AC411AD395181C465C41134A6D428E
:10082000A24113D3012252054C00D4420AD15C00EC
:10083000D4420BD04B4002D592021143E2E749006B
:100840004908DFE75940C90FC90718E000200849E7
:10085000D8E7054801420DD10342F7D0F2E7000086
:100860000000FF07C83800000000F07F0000E0FF34
:100870000000F87F114859400143C0124140002058
:10088000C0E70123089A9B069A4205DC032252071F
:100890008918C90FC907B5E7052252078918074A01
:1008A0001143D2125140ADE770B515461C460246C1
:1008B0000B4628462146FFF7DFFD70BDFFFFFF7F97
:1008C00010B50B1E01D0202301E0011E2BD00C0C13
:1008D00001D10904103B0C0E01D10902083B0C0F99
:1008E00001D109011B1F8C0F01D189009B1E00291A
:1008F00001DB49005B1E0446DC4021431C05A418B3
:100900002022D21A90404B05C20AC90A1A4309197B
:10091000830501D1430818401623984002D30020D4
:10092000521C4141104610BDCA0FD20703D00B46DE
:10093000002140429941024B1A43C1E7004ABFE7F8
:100940000000D041F0B5FF252D04C609C209FF27DC
:1009500004462E400137CB093E4348402A402B40F5
:100960000746002A6BD0002B69D0AA4267D0AB4261
:1009700065D0002800DA32460125ED0529432C43D5
:1009800009022002090AD21A4B0C7F24E31A434CB5
:10099000000A7C44E35C7D242404121914145B00D7
:1009A000A218884201D3521C00E0400049420C4684
:1009B0005C4324115C43DB016415E318040A5C43C7
:1009C000C502200D0C4644436419250A5D432303E8
:1009D000EC0C0D46654300030019EB184C42A34292
:1009E00001D35B18401CD4052018002B07D05B00F6
:1009F000C91804D3401C002901D1400840003F2100
:100A000089048A4209D3002A08DC1106090F04D0A0
:100A1000032149074018C00FC007F0BD0122410063
:100A2000120689187F2252069142F6D20521490703
:100A3000C84201D59010F0BDFF20C005F0BD002FC9
:100A400000DA32461648AA4207D2AB4205D2190252
:100A5000090E17D0F80FC007F0BDFF2563002D0663
:100A6000AB42F9D84900A942F6D8AB4201D1A9421C
:100A7000F2D0A94201D1002101E061004908D0056E
:100A80000843F0BD1102090EFBD0FF200243D00540
:100A9000F0BD0A460146104654E7000096340000B7
:100AA0000000C07F10B501469E240002CA15A307AE
:100AB000002A02D01843002A04DBA21A002A0CDD07
:100AC000D04010BD1206120E01D140004008A21AFB
:100AD00003D4D04040420028F3DDFF224800120634
:100AE000904201D9002010BDC817C043584010BD26
:100AF00070B5BE230202C11520259C07002902D033
:100B0000224300290EDB5B1A002B25DD1146D9405C
:100B10001C46203C02D41046E04070BDEB1A104643
:100B2000984070BD0906090E01D152005208591AA9
:100B300012D41346CB400E46203E01D4F24001E0D1
:100B4000691A8A4000215242994100252B46AD1A6C
:100B50008B4101DB104670BDFF224100120691421D
:100B600002D90020014670BDC017C043C1176140C3
:100B700070BD0102C21504D00123DB071943002A0E
:100B80000ADB9E239A1A02D40846D0407047FF22FF
:100B900041001206914201D900207047C017C0439E
:100BA00070471F22030C02D10F2200041CD0030E39
:100BB00001D10002083A030F01D10001121F830F77
:100BC00001D18000921E002801DB4000521ED20598
:100BD0005118021251181922904004D3491C0028C0
:100BE00001D14908490008467047C10FC90700D024
:100BF0004042012292071143D3E701218907D0E740
:100C000010B50346080001D0202001E0190002D0F1
:100C10000C0C02D003E0084610BD090410380C0E7D
:100C200001D1090208380C0F01D10901001F8C0FF6
:100C300001D18900801E002901DB4900401E1C46AD
:100C4000C4402143C405A2182024241A080A80188D
:100C500019229140E0D3A3400B43401C002BDBD171
:100C60004008400010BDCA0FD20703D00B46002138
:100C7000404299419D23DB051A43C1E79D22D205DD
:100C8000BEE7000010B5FF231B0644009C421DD8A0
:100C90004C009C421AD80346124A0B4307D4401A10
:100CA00002D3EFF3008010BDEFF3008010BD081AEF
:100CB00003D3EFF30080904305E0EFF300800121C0
:100CC0009043C907084380F3008810BD0D231B041F
:100CD0001A4204D01146002000F02DF810BD00F09B
:100CE00041F810BD00000090754600F043F8AE4694
:100CF000050069465346C008C000854618B020B5B7
:100D0000FFF74CFA60BCB64600260027C0C5C0C538
:100D1000C0C5C0C5C0C5C0C5C0C5C0C5403D4908E7
:100D200049008D46704710B50446C046C04620466F
:100D3000FFF725FA10BDC80212D54803400F00285E
:100D400004D0C803C043012188407047EFF30080FE
:100D50000001000903210907084380F30088704758
:100D60000020704710B5024800F008F810BD0000E0
:100D70000000C07F004870470800202010B50C46D6
:100D80001107090F092904D00A290AD008290CD112
:100D900004E011460820FFF7CEFF06E0510606D515
:100DA00001E0510601D50120C007214610BDD10642
:100DB00007D501010909CC084907000E00060443C4
:100DC00009E0410F20024907000A0143200E0006F6
:100DD0001D22D14101430846E7E7000001491820E0
:100DE000ABBEFEE726000200704784B00191009080
:100DF0000198009A0021521E884103DBFFE700980A
:100E000003900AE00198002804D5FFE700984042CB
:100E1000039002E000200390FFE7039804B07047BE
:100E2000811E091F00BFFCD2704784B0039002915D
:100E300001920398006800900098019988430090FF
:100E400000980299019A114008430399086004B080
:100E50007047000082B001900091009B0199094AFF
:100E600088581843885002B07047C04682B001903D
:100E70000091009B0199034A88581843885002B09A
:100E80007047C0464810000082B001900091009861
:100E9000019995225201885002B0704782B00190AA
:100EA00000910098019995225201885002B0704734
:100EB00082B001900091009B0199EA4A885818433A
:100EC000885002B07047C04682B0019000910098EF
:100ED0000199024A885002B07047C046D012000003
:100EE00081B0009000990120C202E448885001B00E
:100EF0007047C04682B00190009101980249405865
:100F00000099084002B070473810000081B000908E
:100F100000988100254A0D48885001B07047C046AE
:100F200010B584B0069C0390029101920093029840
:100F30000199084300990843069908430349084367
:100F400003998900194A885004B010BD810004003B
:100F500081B0009000988100144A8120885001B02F
:100F60007047C04681B00090009881000F4A002071
:100F7000885001B07047C04682B00190009100983F
:100F80000349084301998900084A885002B0704714
:100F90008000040082B001900091009880210843F5
:100FA00001998900014A885002B07047048042408C
:100FB00082B00190009101982721C9014058009901
:100FC000084002B0704782B001900091019827213B
:100FD000C90140580099084002B0704782B00190A2
:100FE000009101982721C90140580099084002B09A
:100FF0007047000081B000900099024A0248885072
:1010000001B0704704080000030000B182B00190F5
:101010000091009B0199034A88581843885002B0F8
:101020007047C0469013000082B001900091009874
:101030000199074A885002B07047C04682B00190BB
:10104000009100980199024A885002B07047C0464A
:101050009012000082B001900091009B01999D20A8
:10106000420188581843885002B07047F0B584B0E8
:1010700001242202344B19680392914319606E498E
:101080000D686D04FCD5457E25409E69A643741904
:101090009C612024045D03252C40DE69AE43341995
:1010A000DC611F4C256805262660466A37681F628A
:1010B00076685E6207262E402660C4697F252D0271
:1010C000DE69AE436406640C3419DC610768456868
:1010D00082680092C66802690192426902929A6926
:1010E000104C14403A07120B2D03ADB2AA1832432C
:1010F000009D2D072D0D1543019A1543029A1543A6
:10110000007E2843084A0240101998611868039A23
:101110001043186008688005FCD504B0F0BDC046D7
:10112000001340408D00F0FF72FF0F000649086871
:1011300001229043086070470349086801221202A7
:10114000904308607047C04608010B403949086861
:1011500001221203104308607047C04681B0014667
:101160006846017000780249086001B07047C046C7
:1011700008030B4080B582B0014601A801800188B8
:101180000F2002022B48FFF750FE02B080BDC04680
:10119000F0B5124B1D46083D2E680124A6432E6073
:1011A0000326360330401F68B743381818601868A4
:1011B000FF26B043C9B24018186028682043286051
:1011C00018682107002A06D0084318601A480168E9
:1011D000C905FCD5F0BD88431860F0BD10010B4077
:1011E00080B582B0014601A801700178024803224F
:1011F000FFF71BFE02B080BD00010B4080B582B03E
:10120000014601A8017001780A483022FFF70DFE5F
:1012100002B080BD07498860074802689202FCD589
:10122000012212040B6813430B600168C906FCD548
:101230007047C04604010B4004020B4081B000908F
:101240000099D04A0120885001B0704782B00190C7
:101250000091009B0199A84A88581843885002B011
:101260007047C0462810000081B00090009901200E
:10127000C202A748885001B07047C046010000264E
:1012800081B000900098812149014058C0B201B05E
:1012900070470000F0B5684A8218294BC3180879D6
:1012A00020280DD000281DD10C68641E5460D56E16
:1012B000244C25408835D5661646703688251DE0B5
:1012C0000C68641E5460D46E1E4D2C401E4EA41932
:1012D000D466146F2C40A4191467012465071B4CB5
:1012E00016460BE00C6864085460D66E154C264018
:1012F0000525ED017619D666164670363768274003
:101300002F433760D46A4E4D2C40D462146B2C406E
:1013100014630024D46414658F24E443D56F2540FE
:10132000D5671D6825401D6049790143BD200840EF
:101330001168074B0B40C018801C1060F0BDC04600
:101340008418000024F93FF001040000FFFFFFCFE4
:101350004000FFCFB0B54A68364BC250364A8018BD
:101360000A78222A58D8930001A4E3589F46C04621
:101370000F140000191400000F14000019140000CD
:1013800019140000191400001914000019140000A9
:101390001914000019140000191400001914000099
:1013A0001914000019140000191400001914000089
:1013B000FD13000019140000FD13000019140000B3
:1013C0001914000019140000191400001914000069
:1013D0001914000019140000191400001914000059
:1013E0001914000019140000191400001914000049
:1013F000FD13000019140000FD13000003231B0758
:1014000004689C4301235B07E318036004E00323A3
:101410001B0704689C4304600B8AC360CB68074CBD
:101420001C40C36A064D1D402B19C362097A114343
:101430000160B0BD081800000418000077770200B2
:101440008888FDFF81B000900099584A584888501C
:1014500001B0704782B0019000910098019911226B
:101460001202885002B0704710B507239B04194040
:1014700092008018024A84589C436118815010BD24
:101480003018000010B5029CA40000191143194344
:10149000014A815010BDC0465018000092008018CB
:1014A000014A81507047C0461018000010B5012253
:1014B000120383180C789C604B7883508978014A1A
:1014C000815010BD0C11000081B0009000991120D6
:1014D0000202885801231843885001B07047000069
:1014E00082B001900091009B0199034A88581843EB
:1014F000885002B07047C0462810000081B00090AC
:1015000000990120C2020248885001B07047C046CD
:101510000100002681B000900098812149014058C7
:10152000C0B201B070470000B0B51122120283585A
:101530000124A34383500B888C781C438B8823435E
:10154000094C1C408358094D1D40631983508B7909
:10155000CC791C43097A21437E23194080184268C4
:101560009A4351184160B0BD18670000E798FDFF2D
:1015700081B000900098034940580121084001B013
:101580007047C0460811000081B0009000980249E1
:101590004058C0B201B070472411000081B00090E3
:1015A0000099024A0248885001B0704704080000C0
:1015B000030000B180B584B00390029101920398BA
:1015C0000B49401802990B4AFFF72FFC03980A4970
:1015D000401801993F22FFF728FC0399074A881811
:1015E000895801221140FFF720FC04B080BDC0469D
:1015F00010110000FFFF0000141100000411000092
:1016000010B50122120383180C789C604978815030
:1016100010BD80B582B0019000910198112109029E
:10162000401800990322D203FFF7FFFB02B080BDF0
:1016300082B00190684601700078019989225201B8
:10164000885002B07047000080B582B003200106C8
:101650002648FFF74FFC019001A8C078C00700287A
:101660001BD0FFE7012041062048FFF7B7FC002808
:1016700009D1FFE71E4948680A680023521C5841F7
:101680000A60486008E01A4948680A680023521E48
:1016900098410A604860FFE721E001A8C078800710
:1016A00000281BD5FFE7012001061048FFF796FC34
:1016B000002809D1FFE70E4948680A680023521E36
:1016C00098410A60486008E0094948680A680023B0
:1016D000521C58410A604860FFE7FFE7FFE703201C
:1016E00001060248FFF7C2FB02B080BD00000A40BD
:1016F000E806202080B582B001A900200870FFE72D
:1017000001A8007807281EDCFFE769460020087062
:10171000FFE7684600787F280FDCFFE7684600781F
:10172000C1009848411801A8027800208854FFE7BA
:101730000098401C69460870EBE7FFE70198401CE1
:1017400001A90870DCE700F0E1F802B080BDC046F6
:1017500070B587B000910146009806AB197005A9D5
:10176000087004A802700A78D20803AB1A700A78CD
:1017700007210A4002A90A700A780121914001AAB2
:101780001170007800280CD0FFE7019B06A80078B4
:10179000C1007C48411803A80278885C184388542B
:1017A00019E006AA1078C00076490C1803A805783D
:1017B000635DDB436355019E1378DB00CC1805782D
:1017C000635D334363551278D20089180278885CD0
:1017D000C0438854FFE707B070BDC04680B586B0EF
:1017E0003D48019004210291FFF758FBC820039067
:1017F00000F0F6FF01980299FFF720FCAE200021CF
:10180000059100F067FA0599022000F063FA059946
:10181000102000F05FFA05994020049000F05AFA79
:101820000599B02000F056FA0599812000F052FA8F
:101830000599CF2000F04EFA0599A12000F04AFA50
:101840000599A62000F046FA0599A82000F042FA72
:1018500005993F2000F03EFA0599AD2000F03AFAD4
:1018600005998B2000F036FA0599332000F032FA02
:101870000398059900F02EFA0599D32000F02AFA72
:101880000599084600F026FA0599D52000F022FABD
:101890000599802000F01EFA0599D92000F01AFA67
:1018A00005991F2000F016FA0599DA2000F012FAC7
:1018B0000599122000F00EFA0599DB2000F00AFAD3
:1018C0000498059900F006FAFFF714FF0599AF2078
:1018D00000F000FA06B080BD00200A4083B002AAE2
:1018E000107001A8017001200090FFE701AA107894
:1018F000411E1170002806D0FFE702A80078009969
:1019000048430090F2E7009803B0704780B584B078
:1019100003A900200870FFE703A8007807282FDC40
:10192000FFE70398B030C0B20021019100F0D2F976
:101930000199022000F0CEF90199102000F0CAF9B7
:10194000019802A90870FFE702A800787F2811DC3F
:10195000FFE702A80078C1000A48401803A90978E7
:10196000405C012100F0B6F9FFE70298401C02A993
:101970000870E9E7FFE70398401C03A90870CBE76C
:1019800004B080BD68002020B0B590B0039104463B
:10199000039814990FAD2C700EAC20700DA8027036
:1019A0000CA803700BAA11700F9905AA11700E995B
:1019B00004AA11700078082804D1FFE707A90620BF
:1019C000087012E00CA801780091C808019049073E
:1019D000401C0029029001D10198029000980299C0
:1019E0004008484307A90870FFE70D98203806A96A
:1019F00008700AA900200870FFE70AA8007807A964
:101A00000978884200DB9CE00CA8007808280CD1FB
:101A1000FFE706A80078062141434E4840180AA96E
:101A20000978405C08A9087035E00CA800780C28FB
:101A30000CD1FFE706A800780C2141434448401828
:101A40000AA90978405C08A9087023E00CA800786E
:101A500010280BD1FFE706A8007801013B48401889
:101A60000AA90978405C08A9087012E00CA800785F
:101A700018280CD1FFE706A80078242141433248FA
:101A800040180AA90978405C08A9087000E058E0ED
:101A9000FFE7FFE7FFE709A900200870FFE709A8B3
:101AA0000078072828DCFFE708A80078C00700288E
:101AB00009D0FFE70FA800780EA909780BAA1278C1
:101AC000FFF746FE0AE00FA800780EA909780BAAD6
:101AD000127853425A41FFF73BFEFFE708A9087806
:101AE000400808700E98401C0EA90870FFE709987E
:101AF000401C09A90870D2E70F98401C0FA9087074
:101B00000CA80078082813D0FFE70FA8007805A9D3
:101B10000978401A0CA909784908884208D1FFE7DA
:101B200005980FA908700498083004A90870FFE709
:101B300004980EA90870FFE70A98401C0AA90870CB
:101B40005BE710B0B0BDC046F84A00000845000091
:101B5000944000006C3E000070B58EB004920C46BC
:101B6000054604981399129A0DAE35700CAD2C7081
:101B70000B900AA8037009A8027008AA117005AAA0
:101B8000002111700078082804D1FFE705A9022080
:101B90000870FFE707A900200870FFE707A8007892
:101BA0000AA90978884246DAFFE70B9802900A9959
:101BB0000798C0434018C1B20A200390FFF78EFE79
:101BC0000146029801F084FE0399FEF717FB06A870
:101BD00001700078002813D1FFE70D9809A90B7850
:101BE0005908059A8A180799514340180CA9097891
:101BF00008AA12780092C0B23022FFF7C5FE14E0A6
:101C00000D9809A90B785908059A8A180799514324
:101C100040180CA90978069A303208AC2478009450
:101C2000C0B2D2B2FFF7B0FEFFE7FFE70798401C53
:101C300007A90870B2E70EB070BDB0B58AB004460F
:101C40000E9809AD2C7008AC2170079206A90B7094
:101C500005A90870FFE70798017800202029049063
:101C60000DDBFFE7079801780120002202927F290F
:101C7000039001DB0298039003980490FFE7049817
:101C8000C007002824D0FFE709A8007808A9097830
:101C9000079A127806AB01931B7805AC2478009460
:101CA000FFF772FE01980078082805D1FFE7099830
:101CB000801D09A9087007E006A800784108099866
:101CC000401809A90870FFE70798401C0790C2E771
:101CD0000AB0B0BD80B584B003AA107002A801702C
:101CE0000078002805D0FFE77F480821FFF7A6F914
:101CF00004E07D480821FFF7D1F8FFE70120410209
:101D00007648FFF7CBF801A900200870FFE701A88B
:101D10000078072826DCFFE7012081047248FFF7DE
:101D2000BDF803A800780006002806D5FFE70120CB
:101D300041026A48FFF782F905E001204102674845
:101D4000FFF7ACF8FFE7012081046748FFF776F959
:101D50000398400003A90870FFE70198401C01A9FF
:101D60000870D4E7012041025C48FFF767F95E483C
:101D70000821FFF763F904B080BDC04680B58AB082
:101D80000920FFF7EFF80A20FFF7ECF83A200721C7
:101D9000FFF700F901200490810650480690FFF7F4
:101DA00093F83B200421FFF7F5F804990698C9063B
:101DB000FFF78AF82E200821FFF7ECF8049906981F
:101DC0008905FFF781F8142002210191FFF7E2F85D
:101DD00001991520FFF7D0F80198FFF7B9F804989A
:101DE0000023039300934204029226201946FFF732
:101DF00097F8029A039B009327201946FFF790F863
:101E0000029A039B009325201946FFF789F8029A4E
:101E1000039B009324201946FFF782F83520FFF733
:101E200075F83620FFF772F8029A039B009333206F
:101E30001946FFF775F8029A039B0093192019467B
:101E4000FFF76EF8029A039B009318201946FFF7DC
:101E500067F8029A039B00932F201946FFF760F85A
:101E60001320FFF775F81220FFF772F82B20FFF709
:101E70006FF80E20FFF76CF80F20FFF769F806984F
:101E8000032105910902FEF7FFFF0499069809074F
:101E9000FFF7CAF806981249FFF716F80599069851
:101EA0008907FFF7B3F806980E49FFF7D3F80599AD
:101EB000069809060791FEF7CDFF06980799FEF7E9
:101EC000F7FFB448089009490991FEF7DDFF08982B
:101ED0000999FEF7F9FF0AB080BDC04600000A402C
:101EE000000300103F00050000200A400C00040021
:101EF00080B584B01249A8480390FFF7D7FA039839
:101F00001049FFF7C7F903987D218900002202924A
:101F1000FFF7C4FA029B0398009319461A46FFF78D
:101F2000B1FA029A03981146FFF79EFA0398FFF759
:101F300085F903980121FFF78DFA04B080BDC046F2
:101F4000545800005858000080B584B01349934895
:101F50000390FFF7ABFA03981149FFF79BF9039839
:101F60007D21890001220292FFF798FA02990398D5
:101F700000910023019319461A46FFF783FA01994D
:101F8000029A0398FFF770FA0398FFF757F903983E
:101F90000221FFF75FFA04B080BDC0466058000020
:101FA0006458000080B584B013497D480390FFF762
:101FB0007DFA03981149FFF76DF903987D21890097
:101FC00001220292FFF76AFA029903980091002316
:101FD000019319461A46FFF755FA0199029A039898
:101FE000FFF742FA0398FFF729F903980221FFF758
:101FF00031FA04B080BDC0466C5800007058000033
:1020000080B582B000200190FFF7A8F80120009071
:102010004002FFF7AFF80198FFF7E2F8FFF786F804
:10202000FFF78AF8009A032000030A21FFF7B0F8AF
:102030000848FFF71BF81020FFF7E0F8FFF786F8D5
:102040000198FFF7E7F80098019900F09DF902B0B8
:1020500080BDC0467858000080B51920400100F0CE
:10206000A1F880BD80B582B0084979480190FFF79A
:102070001DFA01980649FFF76DF901980121FFF754
:10208000E5F80198FFF7DAF802B080BDA05800002B
:10209000A458000080B582B00D4985480190FFF733
:1020A000AFFA01980B49FFF73FFA01980021FFF7BB
:1020B000B0FA01981A210322FFF77CFA0198012156
:1020C0008902FFF70DFA0198FFF7FEF902B080BD13
:1020D000B8580000BA58000080B500F021F8FFF7AA
:1020E0004DFEFFF78DFFFFF703FFFFF72DFFFFF713
:1020F00059FFFFF7B7FFFFF7CDFFFFF7ADFF05492A
:10210000742200208854044988540449B822885411
:1021100080BDC04634052020AC05202024062020A8
:1021200080B588B01A480190FEF764FF1948029004
:10213000FEF760FF18480390FFF784F917480490F2
:10214000FFF780F916480590FFF77CF940480690A4
:10215000FFF778F956480790FFF720FA0198FEF745
:10216000BFFE0298FEF7BCFE0398FFF77DF80498C7
:10217000FFF77AF80598FFF777F80698FFF774F8F5
:102180000798FFF7BBF91020FEF74AFE08B080BDA4
:1021900000000A4000200A4000A0864000000940DC
:1021A0000080864080B584B002900298401E000EE8
:1021B000002803D0FFE70120039011E00298401EA1
:1021C0000949086000200190C043032100F0DCF8B9
:1021D000019806490860064A072111600390FFE74D
:1021E000039804B080BDC04614E000E018E000E0B1
:1021F00010E000E005480068002805D0FFE703492B
:102200000868401E0860FFE77047C0461C05202094
:1022100080B582B00E48FFF733F8012814D1FFE7EC
:1022200000F0BEFE01A908700A490198087000F08C
:10223000F3FA00F025FED7480078002803D0FFE726
:1022400000F0ACFBFFE700E0FFE702B080BDC04656
:10225000000086402005202010B582B01448FFF70A
:1022600059F90B2820D1FFE71148FFF78DF91149E3
:1022700080240A59531C0B51885401F0B5FA0020F0
:102280000190FFE701980B498022895888420ADAB9
:10229000FFE701990748405C01F090FAFFE70198D9
:1022A000401C0190EEE700E0FFE702B010BDC04621
:1022B000008010402407202081B00146684601704C
:1022C00000214056002809D4FFE7684601781F2006
:1022D0000140012088400C490860FFE701B07047C9
:1022E00081B001466846017000214056002809D49B
:1022F000FFE7684601781F2001400120884002491D
:102300000860FFE701B0704780E200E081B001465D
:102310006846017000214056002809D4FFE768464E
:1023200001781F2001400120884016490860FFE71E
:1023300001B0704781B001466846017000214056E7
:10234000002809D4FFE7684601781F2001400120DA
:1023500088400C490860FFE701B0704781B0014632
:102360006846017000214056002809D4FFE76846FE
:1023700001781F2001400120884002490860FFE7E2
:1023800001B0704700E100E070B582B0024601A8DC
:102390000270009100214056002816D4FFE7002467
:1023A00001A908570322D3431840174A80580957F8
:1023B0008C07E50EFF24AC40A043009CA401E4B2CE
:1023C000AC402043194088501AE001A908780F2436
:1023D000204008380322D34318400A4A8058002579
:1023E00049578D07EE0EFF25B540A843009DAD016E
:1023F000EDB2B54028432140083919408850FFE725
:1024000002B070BD1CED00E000E400E080B584B0D7
:102410000390039802900298C07EC006000F0190BE
:10242000012808D0FFE70198062805D0FFE70198AA
:1024300009282CD02CE02CE0CC480078002821D1B1
:10244000FFE7CA4901200870C948007800280CD06D
:10245000FFE7CA4800689D4901F0E8FBFEF748FB2A
:102460000A46C5494A6008600BE0C24800689749BF
:1024700001F0DCFBFEF73CFB0A46BF494A600860FE
:10248000FFE703E0B94900200870FFE701E000E042
:10249000FFE704B080BDC04680B584B003900398C8
:1024A00002900298C07EC006000F0190012804D05F
:1024B000FFE70198062801D068E068E0AB480078A3
:1024C000002862D0FFE7A9480178491E0170007812
:1024D000401E0090032857D80098810001A0405862
:1024E0008746C046F5240000312500006D25000018
:1024F000752500009E48007800280CD0FFE79F4813
:102500000068724901F092FBFEF7F2FA0A469A4916
:102510004A6008600BE0974800686C4901F086FB50
:10252000FEF7E6FA0A4694494A600860FFE72BE0A6
:102530008F48007800280CD0FFE790484068634936
:1025400001F074FBFEF7D4FA0A468B494A60086032
:102550000BE0884840685D4901F068FBFEF7C8FA67
:102560000A46F5494A600860FFE70DE07F49002010
:10257000087009E07E49012008708048426AD0173F
:10258000ED490A604860FFE7FFE700E0FFE704B0BD
:1025900080BDC0460000202080B584B00390039821
:1025A00002900298C07EC006000F401E01900828CD
:1025B00000D987E00198810001A040588746C046B5
:1025C000E5250000C5260000C5260000C526000040
:1025D000C5260000E7250000C5260000C126000032
:1025E000C32600006FE061480078002867D0FFE74D
:1025F0005E480178491C01700078801E0090042814
:102600005CD80098810001A0405887462126000030
:102610005D26000099260000A1260000B5260000D6
:102620005348007800280CD0FFE7544840682749F9
:1026300001F0FCFAFEF75CFA0A46BF494A600860FE
:102640000BE04C484068214901F0F0FAFEF750FADF
:102650000A46B9494A600860FFE72FE0444800781D
:1026600000280CD0FFE745488068184901F0DEFAE1
:10267000FEF73EFA0A46B0494A6008600BE03D4862
:102680008068124901F0D2FAFEF732FA0A46AA49E6
:102690004A600860FFE711E03449002008700DE04F
:1026A0003349002008703348426AD017A2490A60B3
:1026B000486003E02D4900200870FFE7FFE702E0D3
:1026C00001E000E0FFE704B080BDC046000020410B
:1026D00083B00290029801900198C07EC006000F5E
:1026E000401E009008283ED80098810001A0405864
:1026F0008746C046192700006727000067270000AB
:1027000067270000672700001B27000067270000DD
:10271000632700006527000026E0144800780028A1
:102720001AD1FFE71248007800280AD0FFE70F49C6
:10273000042008701148426AD0177F490A60486037
:1027400009E00A49052008700A48426AD0177A4908
:102750000A604860FFE703E0044900200870FFE7D3
:1027600002E001E000E0FFE703B070471005202021
:1027700000002020E804202028052020F806202042
:1027800080B582B0019000F08BFB00906846007825
:102790008007C00F02B080BD80B582B0019000F00C
:1027A0007FFB0090684600784007C00F02B080BDF4
:1027B00080B582B0019000F073FB0090684600780D
:1027C0000007C00F02B080BD80B582B0019000F05C
:1027D00067FB0090684600780121084002B080BD88
:1027E00082B0019000200090FFE7009863280FDC82
:1027F000FFE7019807490860FFE7064800680028DE
:1028000001D0FFE7F9E7FFE70098401C0090ECE7F4
:1028100002B070471C05202080B586B000200590CE
:1028200000F08CF8014603A8017000780A2801DB4B
:10283000FFE77CE000200290FFE70298F92823D808
:10284000FFE700F0ADFB01A908705349019808703B
:10285000039804A90091087000F070F802460098EF
:1028600003A90A70007809784840002804D1FFE7DE
:102870000598401C059002E000200590FFE7FFE767
:102880000298401C0290D8E70598EF2801D8FFE78E
:102890004DE02848007803A90978884201D1FFE774
:1028A00045E02448007803A9097888421DDDFFE748
:1028B0002048007809280ED1FFE703A800780028F7
:1028C00009D1FFE71C4948680A680023521C584197
:1028D0000A60486008E0184948680A680023521EE8
:1028E00098410A604860FFE71CE003A800780928C7
:1028F0000ED1FFE70F480078002809D1FFE70E4905
:1029000048680A680023521E98410A60486008E03F
:10291000094948680A680023521C58410A60486007
:10292000FFE7FFE7FFE7039802490870FFE706B0FB
:1029300080BDC046300520202805202081B01648E3
:102940000078C007002811D0FFE713480178480736
:10295000C00F80008A07D20F520080180907C90FE4
:102960004018072148406946087010E00A4801787D
:102970004807C00F80008A07D20F5200801809074D
:10298000C90F40180F21484069460870FFE76846A4
:10299000007801B07047C0462005202005494868EE
:1029A000086888608868C00F087300204860086065
:1029B0007047C046E806202080B586B004A90020F4
:1029C0000870E14800680390E0480078401E05A9BF
:1029D0000870FFE70398002800D1B1E10398C07E9A
:1029E000400901280FDBFFE703998889401C888193
:1029F00003988089D649884204DBFFE70399088B56
:102A00008881FFE7FFE70398C07E40090290002815
:102A100009D0FFE70298012832D0FFE70298022888
:102A200000D138E178E1E948006805A90978C84093
:102A3000C00700281CD0FFE7039900208881039974
:102A4000C881FFE70399C87EE1221040C876039849
:102A50008068002804D0FFE7039881688847FFE773
:102A6000FFE70399C87E1F2210402030C87606E099
:102A70000399C87EE12210401630C876FFE74BE18B
:102A8000D248006805A90978C840C007002800D1CD
:102A90009BE00398C089012833DBFFE7039988890D
:102AA000098A88422CDDFFE7FFE70398C0890228E6
:102AB00004DCFFE70398C089019002E00320019045
:102AC000FFE7019A0399C87E1207D20EE12318404E
:102AD0008018C87603988068002804D0FFE7039820
:102AE00081688847FFE7FFE70399C87E1F221040EF
:102AF0002030C8760399002088810399C881FFE7B8
:102B000062E003998889098B88421ADBFFE7039802
:102B1000C07EC006000F082812D0FFE7FFE7039928
:102B2000C87EE12210401030C876039880680028E3
:102B300004D0FFE7039881688847FFE7FFE7FFE7D6
:102B400041E003998889C98A88421ADBFFE7039824
:102B5000C07EC006000F062812D0FFE7FFE70399EA
:102B6000C87EE12210400C30C876039880680028A7
:102B700004D0FFE7039881688847FFE7FFE7FFE796
:102B800020E003998889898A88421ADBFFE7039845
:102B9000C07EC006000F042812D0FFE7FFE70399AC
:102BA000C87EE12210400830C8760398806800286B
:102BB00004D0FFE7039881688847FFE7FFE7FFE756
:102BC000FFE7FFE7FFE7FFE764E003998889098BE8
:102BD000884217DBFFE7FFE70399C87EE122104038
:102BE0001230C87603988068002804D0FFE7039865
:102BF00081688847FFE7FFE70399C87E1F221040DE
:102C0000C87646E003998889C98A884217DBFFE7BE
:102C1000FFE70399C87EE12210400E30C876039882
:102C20008068002804D0FFE7039881688847FFE7A1
:102C3000FFE70399C87E1F221040C87628E0039959
:102C40008889898A884217DBFFE7FFE70399C87EF6
:102C5000E12210400A30C87603988068002804D02A
:102C6000FFE7039881688847FFE7FFE70399C87E7D
:102C70001F221040C8760AE00399C87E1F22104028
:102C80004030C8760399C889401CC881FFE7FFE738
:102C9000FFE7FFE740E04D48006805A90978C84014
:102CA000C00700280AD0FFE70399C87E1F22104002
:102CB0002030C8760399002088812CE00399888908
:102CC000098A884226DDFFE7FFE70398C0890228CA
:102CD00004DCFFE70398C089009002E00320009025
:102CE000FFE7009A0399C87E1207D20EE12318402D
:102CF0008018C87603988068002804D0FFE70398FE
:102D000081688847FFE7FFE70399C87E1F221040CC
:102D1000C876FFE7FFE7FFE70398C07E4009012878
:102D200005DBFFE70498401C04A90870FFE7FFE7F4
:102D30000398006803900598401E05A9087049E6AD
:102D400004A8007806B080BD1405202018052020B6
:102D5000FFFF000080B586B0002003904548006862
:102D6000049045480078401E05A90870FFE70499C3
:102D700000200029029006D0FFE704984068411E19
:102D800088410290FFE70298C007002815D0FFE7AE
:102D9000039801900498416888470146019805AA64
:102DA0001278914008430390FFE70498006804906C
:102DB0000598401E05A90870D9E703982F490968AE
:102DC0004840C0430149086006B080BDE0062020AD
:102DD00083B001902748006800900198002805D032
:102DE000FFE725480078212804D3FFE70020C043EF
:102DF00002903BE0FFE7009800280DD0FFE7009825
:102E00000199884204D1FFE70020C04302902DE0E1
:102E1000009800680090EEE716490868019A106073
:102E2000019AD07E1F231840D076019AD07EE123EC
:102E300018401630D076019A00209081019AD081F6
:102E4000019A0F201082019808600198C37E01202A
:102E50000340094801788B40084A11681943116002
:102E60000178491C017000780290FFE7029803B0D6
:102E70007047C0461405202018052020E4062020B5
:102E800080B5FFF767FFFFF797FD80BD8648806834
:102E90007047C04680B50120FFF738FA80BD0000BA
:102EA000B0B584B00120009001061F480190FEF7E4
:102EB0008AF8009904460198621E944103AB02937C
:102EC0001A78FE252A4012191A704902FEF77BF87B
:102ED0000099029B04460198621E94411A7864008E
:102EE000FD252A4012191A700902FEF76CF80099A4
:102EF000029B04460198621E94411A78A400FB25A7
:102F00002A4012191A700905FEF75DF80299024667
:102F1000501E82410878D200F723184080180870AC
:102F2000039804B0B0BDC04600200A4080B588B008
:102F3000002004900790FFF7CFF800F034FC00F079
:102F400091F9FFF7A7FF00F065FC049B6420029055
:102F50001048059001900090C1487F21C905069155
:102F60000D4A00F08AFB0598069AB421029101905F
:102F70000090B8483F210906084B00F07EFB00F0A6
:102F800007FC00F0EDFBFFE700F072F900F0C2F87B
:102F9000FAE7C0460000FA43CDCCCC3DCDCC4C3E48
:102FA000B0B584B00120009081041F480190FDF766
:102FB000FFFF009904460198621E944103AB0293FF
:102FC0001A78FE252A4012191A704904FDF7F0FFFD
:102FD0000099029B04460198621E94411A7864008D
:102FE000FD252A4012191A700904FDF7E1FF009926
:102FF000029B04460198621E94411A78A400FB25A6
:103000002A4012191A70C903FDF7D2FF029902462D
:10301000501E82410878D200F723184080180870AB
:10302000039804B0B0BDC04600000A40B0B586B0F9
:10303000019005910598FDF7D8FD1A49FDF782FC2E
:10304000FDF730FD03900398FDF7CFFD0290164980
:1030500008684968FDF707FE029902467D4800F0BE
:1030600087FAFDF71FFD04900498012805DBFFE7B0
:1030700004A8008800F07EFB0AE00498002806D52A
:10308000FFE704984042049000F06AFBFFE7FFE787
:10309000019870491CC91CC01CC91CC03CC93CC05B
:1030A00006B0B0BDBC74933CE8062020B0B584B037
:1030B000009003910398FDF798FD0190FFF7E6FE5D
:1030C000FDF793FD01990246654800F051FAFDF7BE
:1030D000E9FC02900298012805DBFFE702A80088BE
:1030E00000F048FB0CE00298002808D5FFE70298A2
:1030F00040420290FF20F43000F03CFBFFE7FFE786
:10310000009857491CC91CC01CC91CC03CC93CC004
:1031100004B0B0BD80B596B04C480078401E019018
:1031200004287FD80198810001A040588746C046F6
:103130004531000089310000CD310000113200001E
:103140001B3200004448007800280ED0FFE74049B9
:1031500008684968FDF7E8FB0022404BFDF78CF951
:10316000FDF74CF9FD4908600DE0394908684968E8
:10317000FDF7DAFB0022394BFDF77EF9FDF73EF94A
:10318000F5490860FFE75FE0F248007800280ED0BC
:10319000FFE72F4908684968FDF7C6FB00222F4B5F
:1031A000FDF76AF9FDF72AF9EC4948600DE0284976
:1031B00008684968FDF7B8FB0022284BFDF75CF969
:1031C000FDF71CF9E4494860FFE73DE0E14800787D
:1031D00000280ED0FFE71E4908684968FDF7A4FBE8
:1031E00000221E4BFDF748F9FDF708F9DB4988601E
:1031F0000DE0174908684968FDF796FB0022174B58
:10320000FDF73AF9FDF7FAF8D3498860FFE7FFE7E1
:103210000F480068D149486216E00D480068CE4961
:10322000486211E0CB480078002806D0FFE7CB4881
:10323000416A0CA8FFF73AFF05E0C748416A02A8B7
:10324000FFF7F4FEFFE7FFE716B080BD1005202072
:1032500028052020E8042020000020200000244031
:10326000F806202080B5FEF7B9FAFEF743FA80BDD4
:1032700010B59EB0B5488068C117FDF7B6FD014690
:10328000B3480160026801201B90019008201D9046
:1032900000901E2000211C910623FEF75DFC1B9967
:1032A0001C981D9B009132215022FEF76DFBA9480E
:1032B0000078002804D0FFE7A84800681A9003E0CF
:1032C000A54800681A90FFE71A98FDF752FC0246DD
:1032D0000120179001900820199000903221189138
:1032E0000223FEF739FC17981899199B00901420B7
:1032F0002E22FEF749FB97480078002804D0FFE70C
:1033000096480068169003E0934800681690FFE71F
:103310001698934900F08AFCFDF72BFC0246012326
:1033200013930193082015900090192032211491D5
:10333000FEF712FC13981499159B00902A2049223D
:10334000FEF722FB83480078002804D0FFE783487B
:103350004068129003E0804840681290FFE712989E
:10336000FDF707FC024601200F9001900820119004
:1033700000903221109102230846FEF7EDFB0F98D2
:103380001099119B00903E202E22FEF7FDFA714805
:103390000078002804D0FFE7704840680E9003E0F2
:1033A0006D4840680E90FFE70E986D4900F03EFCB6
:1033B000FDF7DFFB024601230B93019308200D90DC
:1033C0000090432032210C91FEF7C6FB0B980C991C
:1033D0000D9B009055204422FEF7D6FA5D480078F8
:1033E000002804D0FFE75D4880680A9003E05A484F
:1033F00080680A90FFE70A98FDF7BBFB02460120B0
:10340000079001900820099000905D2032210891DA
:103410000223FEF7A1FB07980899099B00906920F9
:103420002E22FEF7B1FA4B480078002804D0FFE7BF
:103430004A488068069003E0474880680690FFE7A6
:103440000698474900F0F2FBFDF793FB0246012482
:1034500001940820029000906E2032212346FEF74E
:103460007BFB029B00940F20282103915322FEF73F
:103470008BFA02980399394A526A019400901920F4
:1034800003230493FEF768FB029B039900944620F4
:103490004122FEF779FA02980399049B2E4A526A58
:1034A000019400905020FEF757FBFEF72FFAFA2008
:1034B000FFF796F92B480078401E059004283CD869
:1034C0000598810001A040588746C046E1340000BD
:1034D000F3340000053500001735000029350000E1
:1034E00001200090214A322108231846FEF7A5FB4F
:1034F00024E0012000901D4A322108230846FEF7EF
:103500009CFB1BE001200090184A5D20322108231B
:10351000FEF793FB12E001200090134A19202821A6
:103520000823FEF78AFB09E0012000900E4A502094
:1035300028210823FEF781FB00E0FFE7FEF7E6F90C
:10354000FA20FFF74DF91EB010BDC046E806202056
:103550002007202000002020E8042020F80620205A
:103560000000204110052020C5580000C45800006C
:1035700080B58CB00B900A9109920A98FDF792FAE7
:103580000B9948620B99086948610A98099900F0FB
:10359000A5FB0B9908610B98006908900B980690A1
:1035A0000169C06800F0A8FA0699C8600B9908691B
:1035B000496900F093FB07900B99C868896900F08E
:1035C0008DFA002804D1FFE70B998869C86012E0E2
:1035D0000B99C86889690122D207514000F073FA3B
:1035E000002807D1FFE70B9988690122D2075040D4
:1035F000C860FFE7FFE70B990591086802900898FB
:1036000001904868C96800F011FB019902460298D0
:10361000039200F00BFB039900F06EFA0146059847
:1036200004918068079900F001FB049900F064FAA6
:103630000599C8610B99C869096A00F04FFA00281A
:1036400004D1FFE70B99086AC86112E00B99C869B9
:10365000096A0122D207514000F035FA002807D14B
:10366000FFE70B99086A0122D2075040C861FFE7C3
:10367000FFE70B98C0690CB080BD10B584B0089C02
:10368000079C069C03900291019200930298039973
:10369000086001980399486000980399886003992D
:1036A00000200861069803998861079803990862C9
:1036B00008980399486204B010BD81B0009000984A
:1036C00000887D218900884205DBFFE70099FF2003
:1036D000F4300880FFE701B07047000080B582B089
:1036E000014601A80180018802480022FDF7D6FEAC
:1036F00002B080BD00A0864080B582B0014601A81E
:103700000180018802480122FDF7C8FE02B080BD99
:103710000000094080B584B0024603A800900280F2
:1037200002AA01921180FFF7C8FF0198FFF7C5FFB9
:1037300000980088FFF7D2FF01980088FFF7DCFFB0
:1037400004B080BD80B582B0014601A80180018827
:1037500002480122FDF7A2FE02B080BD0080864033
:1037600080B5FF20F43000F005F800210846FFF78F
:10377000D1FF80BD80B582B0014601A800900180D4
:10378000FFF79BFF00980088FFF7DCFF02B080BDC9
:1037900080B582B012200190FEF78EFD0198FEF7F1
:1037A000C9FD02B080BD80B582B00F200190FEF748
:1037B00097FD0198FEF7D2FD02B080BD80B582B0C2
:1037C00001A90870FFE70748FDF7D2FE002801D0E5
:1037D000FFE7F8E701A801780248FDF729FF02B0EA
:1037E00080BDC0460080104081B00948802140580B
:1037F0007F2806DBFFE706498022002088500090E2
:1038000002E001200090FFE7009801B07047C04639
:103810002407202010B582B0244800907021FCF7C6
:10382000EBFC0099224848602248886022480862E0
:10383000224848622248C8632248086422488865B2
:103840002248C86500200190FFE7019803282BDC7F
:10385000FFE7019A1C210B4653431448C3189A767C
:10386000019B0A465A438318DA7EFE242240DA7608
:10387000019B0A465A43831819229A82019B0A46E1
:103880005A4383184B22DA82019B0A465A43831813
:1038900096221A83019A51434018FFF799FAFFE7DD
:1038A0000198401C0190D0E702B010BDA80720206D
:1038B000C9270000D1260000812700000D24000048
:1038C0009927000099240000B127000099250000E5
:1038D00043088B421AD3002203098B4279D3030A8F
:1038E0008B425ED3030B8B4242D3030C8B4227D314
:1038F0000902FF2212BA030C8B4202D312120902F0
:1039000003D0030B8B4233D31AE0D3E0411A80413A
:10391000401C704703460B4371D443088B42F5D3D8
:10392000002203098B4254D3030A8B4239D3030B81
:103930008B421DD3030C8B4202D394466EE0090ADE
:10394000C30B8B4201D3CB03C01A5241830B8B4272
:1039500001D38B03C01A5241430B8B4201D34B035B
:10396000C01A5241030B8B4201D30B03C01A5241C0
:10397000C30A8B4201D3CB02C01A5241830A8B4245
:1039800001D38B02C01A5241430A8B4201D34B022E
:10399000C01A5241030A8B4201D30B02C01A524192
:1039A000CDD2C3098B4201D3CB01C01A5241830946
:1039B0008B4201D38B01C01A524143098B4201D380
:1039C0004B01C01A524103098B4201D30B01C01AAB
:1039D0005241C3088B4201D3CB00C01A5241830825
:1039E0008B4201D38B00C01A524143088B4201D352
:1039F0004B00C01A5241411A524110007047CA0F81
:103A000000D04942031000D34042534000229C465C
:103A100003098B422DD3030A8B4212D38901FC2266
:103A200012BA030A8B420CD3890192118B4208D33C
:103A3000890192118B4204D3890137D0921100E0A1
:103A40008909C3098B4201D3CB01C01A52418309B2
:103A50008B4201D38B01C01A524143098B4201D3DF
:103A60004B01C01A524103098B4201D30B01C01A0A
:103A70005241C3088B4201D3CB00C01A5241830884
:103A80008B4201D38B00C01A5241D9D243088B42DA
:103A900001D34B00C01A5241411A00D20146524193
:103AA000104663465B1000D34042704763465B108C
:103AB00000D3404201B50021004201D0C94308466D
:103AC000C046C04602BD10B500F05CF8EFF30080C0
:103AD000800001D5012010BD002010BD10B500F000
:103AE0007BF8EFF300804000800F012801D0012017
:103AF00010BD002010BD000070B50125ED070400C9
:103B00004C4020D4441A01D2001B0919C60D4B00A9
:103B1000F2B2FF2A29D01B0E2CD000020C0228433F
:103B20002C43D31ADC40051910D2280A02D3401CBA
:103B30006D0611D0761EF6058019FF2A00DA70BDD9
:103B4000C00DC00570BD694000F0CEF801200543EE
:103B5000C541521C761CE8E764089C40C9016140DD
:103B60008900E7D10124A043E4E71B0E440200D002
:103B7000034870BD002AFCD1C00FC00770BD00BF54
:103B80000000C07F0123DB0502000A430DD4DA42A6
:103B900003D49A4207D488427047D84214D4D942F9
:103BA00012D48842704780427047DA4203D59A4265
:103BB000F9D5814270475B004200DA4204D24A00E4
:103BC000DA4201D28142704710B5024AFDF75AF835
:103BD00010BD00BF090013040123DB0502000A43E6
:103BE0000DD4DA4203D49A4207D488427047D842AF
:103BF00014D4D94212D48842704780427047DA42C6
:103C000003D59A42F9D5814270475B004200DA42FF
:103C100004D24A00DA4201D28142704710B5024A0A
:103C2000FDF730F810BD00BF0900160470B5420062
:103C300064414B005C41120E39D01B0E38D0FF2A74
:103C40003CD0FF2B3AD0D2187F3A40024902400ABA
:103C5000490A4518ED0106004E43000A090A484387
:103C60000104731A4019190C4318990F04D05B080A
:103C7000012149075B1A521CD80904D3401CF503E3
:103C800001D19D0607D0FF2A08D2D50506D0E4074A
:103C90002043401970BD0125A843F4E7002A01DC48
:103CA000E00770BD2402FF202043C00570BD1B0E3D
:103CB000FF2A03D0FF2B01D0E00770BDFF26360698
:103CC0004500B54206D84D00B54203D8D218FF2AA8
:103CD00000D0E7E7004870BD0000C07F70B5012547
:103CE000ED0704004C4022D4441A02D26C40001B61
:103CF0000919C60D4B00F2B2FF2A4BD01B0E50D053
:103D000000020C02A8432C43D31ADC40051B05D546
:103D1000AD0019D36D08761E521E37D0F605280A5D
:103D200001D2801970BD70416D0603D070BD69402D
:103D3000FFF7E8FE9C4009026140490001D0401EA7
:103D400070BD0124A04370BD6D081DD001202B0C57
:103D500001D12D0410302B0E01D12D0208302B0F74
:103D600001D12D01001DAB0F01D1AD00801CEB0F67
:103D700001D16D00401C361A121A6D00680AF50553
:103D80004019012A02DB70BD002070BDC036300A28
:103D9000C00770BD1B0E440201D1FF2B00D10248A9
:103DA00070BD002AF0D070BD0000C07F80807F7E93
:103DB0007D7C7B7A797877767675747372717170A1
:103DC0006F6E6E6D6C6C6B6A6A6968686766666553
:103DD0006464636362616160605F5F5E5E5D5D5CE1
:103DE0005C5B5B5A5A595958585757565655555552
:103DF0005454535352525251515050504F4F4F4EB2
:103E00004E4D4D4D4C4C4C4B4B4B4A4A4A494949FF
:103E10004848484747474746464645454544444441
:103E2000444343434342424242414141818283846D
:103E300085868788898B8C8D8E8F919293959697A6
:103E4000999A9C9D9FA0A2A3A5A7A8AAACAEB0B228
:103E5000B3B5B7B9BCBEC0C2C5C7C9CCCED1D4D723
:103E6000D9DCDFE2E6E9ECF0F3F7FAFE000000004F
:103E700000000000002F00000000070007000014F1
:103E80007F147F1400242A7F2A12006264081323FF
:103E900000364955225000000503000000001C2296
:103EA0004100000041221C000014083E08140008D4
:103EB000083E0808000000A0600000080808080884
:103EC000000060600000002010080402003E51491C
:103ED000453E0000427F40000042615149460021BA
:103EE00041454B31001814127F10002745454539D4
:103EF000003C4A494930000171090503003649492F
:103F0000493600064949291E0000363600000000E7
:103F10005636000000081422410000141414141432
:103F200000004122140800020151090600324959DB
:103F3000513E007C1211127C007F49494936003EF7
:103F400041414122007F4141221C007F49494941B2
:103F5000007F09090901003E4149497A007F0808AC
:103F6000087F0000417F4100002040413F01007F69
:103F700008142241007F40404040007F020C027F35
:103F8000007F0408107F003E4141413E007F090947
:103F90000906003E4151215E007F0919294600466D
:103FA000494949310001017F0101003F4040403F44
:103FB000001F2040201F003F4038403F006314088E
:103FC0001463000708700807006151494543000069
:103FD0007F41410000552A552A55000041417F008C
:103FE0000004020102040040404040400000010281
:103FF0000400002054545478007F4844443800386A
:104000004444442000384444487F003854545418F1
:1040100000087E0901020018A4A4A47C007F080403
:1040200004780000447D4000004080847D00007FD3
:10403000102844000000417F4000007C04180478F0
:10404000007C0804047800384444443800FC2424EC
:1040500024180018242418FC007C080404080048D4
:104060005454542000043F444020003C4040207CF5
:10407000001C2040201C003C4030403C00442810E4
:104080002844001CA0A0A07C004464544C44141498
:1040900014141414000000000000000000000000D0
:1040A0000000FC000000000002000000000C020CF8
:1040B000020000000000000090D0BCD0BC900003C3
:1040C000000300001824FE448C00030207020100D4
:1040D0001824D8B04C80000300010201C038E43835
:1040E000E0000102020102020806000000000000D8
:1040F00000000000000000F80402000000010204BB
:10410000000204F800000004020100009060F86062
:1041100090000000010000002020FC202000000092
:104120000100000000000000000008060000000080
:1041300020202020200000000000000000000000DF
:1041400000000002000000000080601C0200040368
:1041500000000000F8040404F8000102020201005B
:104160000008FC0000000002030200001884442440
:10417000180003020202020008042424D8000102ED
:104180000202010040B088FC800000000003020031
:104190003C242424C400010202020100F824242C3F
:1041A000C0000102020201000C04E41C0400000033
:1041B00003000000D8242424D800010202020100D8
:1041C00038444444F80000030202010000001000DB
:1041D00000000000020000000000200000000000BD
:1041E00006000000002050880402000000000102C8
:1041F0009090909090000000000000000002048861
:1042000050200002010000001804C424180000001F
:1042100002000000F804E494F80001020202020027
:1042200000E09CF0800002030000030204FC242450
:10423000D800020302020100F80404040C00010289
:104240000202010004FC0404F8000203020201005F
:1042500004FC24740C0002030202030004FC247416
:104260000C00020302000000F0080444CC400001EE
:104270000202010004FC2020FC04020300000302EF
:104280000404FC040400020203020200000404FC13
:10429000040406040403000004FC24D00C040203FC
:1042A0000200030204FC04000000020302020203F5
:1042B000FC3CC03CFC0003000300030004FC30C4D1
:1042C000FC04020302000300F8040404F8000102E5
:1042D0000202010004FC2424180002030200000072
:1042E000F8848404F80001020207050004FC246439
:1042F0009800020302000302182424448C000302E5
:10430000020201000C04FC040C0000020302000085
:1043100004FC0000FC04000102020100047C80E0B7
:104320001C040000030000001CE03CE01C00000333
:1043300000030000049C609C0400020300030200D0
:10434000041CE01C04000002030200000C84641C36
:1043500004000203020203000000FE02020000004B
:1043600007040400000E30C000000000000102003D
:10437000000202FE00000004040700000004020422
:10438000000000000000000000000000000008081D
:1043900008080808000002000000000000000000FB
:1043A0000040A0A0C00000010202030204FC202083
:1043B000C00000030202010000C0202060000001D4
:1043C0000202020000C02024FC00000102020302DD
:1043D00000C0A0A0C0000001020202000020F824DA
:1043E00024040002030202000040A0A06020000795
:1043F0000A0A0A0404FC2020C0000203020003028F
:104400000020E4000000000203020000000020E49D
:10441000000008080807000004FC80E020200203D8
:10442000020003020404FC00000002020302020076
:10443000E020E020C00003000300030020E0202073
:10444000C00002030200030200C02020C0000001DF
:104450000202010020E02020C000080F0A02010033
:1044600000C02020E0000001020A0F0820E04020E8
:1044700020000203020000000060A0A02000000253
:10448000020203000020F8200000000001020200E8
:1044900020E00020E00000010202030220E0208072
:1044A00060200000030100006080E08060000003E5
:1044B000000300002060806020000203000302006F
:1044C00020E0208060200808070100000020A06094
:1044D0002000000203020200000020DE02000000B3
:1044E00000070400000000FF00000000000F0000B3
:1044F0000002DE20000000040700000002010204A8
:1045000004020000000000000000000000000000A5
:104510000000000000000000000000F800000000A3
:10452000000000333000000000100C06100C0600E4
:10453000000000000000000040C07840C07840004B
:10454000043F04043F040400007088FC08300000AD
:10455000001820FF211E0000F008F000E018000005
:1045600000211C031E211E0000F0088870000000BE
:104570001E2123241927211010160E000000000010
:104580000000000000000000000000E0180402002D
:10459000000000071820400000020418E00000009E
:1045A0000040201807000000404080F0804040009C
:1045B0000202010F01020200000000F000000000F2
:1045C0000101011F010101000000000000000000C6
:1045D00080B070000000000000000000000000003B
:1045E00000010101010101010000000000000000C4
:1045F000003030000000000000000000806018045F
:10460000006018060100000000E010080810E0003B
:10461000000F102020100F00001010F80000000004
:104620000020203F2020000000700808088870004B
:1046300000302824222130000030088888483000CB
:104640000018202020110E000000C02010F80000EB
:1046500000070424243F240000F808888808080084
:104660000019212020110E0000E010888818000099
:10467000000F112020110E0000380808C83808006B
:104680000000003F000000000070880808887000EB
:10469000001C222121221C0000E010080810E0006C
:1046A0000000312222110F00000000C0C0000000F5
:1046B000000000303000000000000080000000001A
:1046C0000000806000000000000080402010080012
:1046D00000010204081020004040404040404000DB
:1046E00004040404040404000008102040800000B6
:1046F0000020100804020100007048080808F000BB
:104700000000003036010000C030C828E810E0008A
:104710000718272423140B000000C038E000000015
:10472000203C23020227382008F88888887000007F
:10473000203F202020110E00C03008080808380053
:10474000071820202010080008F808080810E000CA
:10475000203F202020100F0008F88888E80810006B
:10476000203F20202320180008F88888E80810003F
:10477000203F200003000000C03008080838000077
:1047800007182020221E020008F808000008F80878
:10479000203F210101213F20000808F808080000FF
:1047A0000020203F2020000000000808F808080032
:1047B000C08080807F00000008F888C028180800AA
:1047C000203F20012638200008F8080000000000E3
:1047D000203F20202020300008F8F800F8F80800DA
:1047E000203F003F003F200008F830C00008F808D4
:1047F000203F200007183F00E01008080810E000E4
:104800000F10202020100F0008F808080808F000FA
:10481000203F210101010000E01008080810E0001D
:104820000F18242438504F0008F8888888887000B2
:10483000203F2000030C3020007088080808380052
:104840000038202121221C00180808F80808180048
:104850000000203F2000000008F808000008F808C9
:10486000001F202020201F000878880000C838087A
:10487000000007380E010000F80800F80008F800F2
:10488000033C0700073C030008186880806818088C
:1048900020302C03032C30200838C800C83808000A
:1048A0000000203F2000000010080808C838080059
:1048B0002038262120201800000000FE02020200FD
:1048C0000000007F40404000000C30C000000000AD
:1048D000000000010638C00000020202FE000000D5
:1048E000004040407F00000000000402020204007B
:1048F00000000000000000000000000000000000B8
:10490000808080808080808000020204000000009F
:104910000000000000000000000080808080000097
:104920000019242222223F2008F800808000000085
:10493000003F112020110E00000000808080000048
:10494000000E112020201100000000808088F80057
:10495000000E112020103F20000080808080000089
:10496000001F222222221300008080F088888818ED
:104970000020203F202000000000808080808000F8
:10498000006B94949493600008F80080808000008D
:10499000203F210000203F20008098980000000068
:1049A0000020203F20200000000000809898000098
:1049B00000C08080807F000008F8000080808000B8
:1049C000203F24022D302000000808F800000000DD
:1049D0000020203F20200000808080808080800098
:1049E000203F20003F20003F80800080808000002A
:1049F000203F210000203F200000808080800000B8
:104A0000001F202020201F008080008080000000E8
:104A100080FFA12020110E00000000808080800017
:104A2000000E112020A0FF80808080008080800008
:104A300020203F2120000100000080808080800035
:104A40000033242424241900008080E080800000AA
:104A50000000001F202000008080000000808000F7
:104A6000001F202020103F20808080000080808058
:104A700000010E30080601008080008000808080E8
:104A80000F300C030C300F0000808000808080000D
:104A90000020312E0E312000808080000080808038
:104AA00080818E70180601000080808080808000E8
:104AB0000021302C2221300000000000807C020206
:104AC00000000000003F404000000000FF00000028
:104AD00000000000FF0000000002027C80000000D7
:104AE0000040403F000000000006010102020404F3
:104AF00000000000000000000000000000000000B6
:104B000000000000000000000000000000000000A5
:104B10000000000000000000000000000000000095
:104B200000F0F0F0000000000000000000017F0134
:104B30000000000000000000001C1C1C0000000021
:104B400000008060301C8C60301C0C0000000000F5
:104B50000000000000000000000000000000000055
:104B600000000000000000E00000000000E0000085
:104B70000086E69F86868686E69F860000011F01E6
:104B8000010101011F010100000080C06020F82028
:104B9000E0C00000000003070C18FF70E181000076
:104BA0000000070F10107F100F07000080602060CA
:104BB00080000000E02000000F3020309F70DC37C4
:104BC0001030C0000000100E030007181018070076
:104BD0000000C02020E0C0000000000080E01F387E
:104BE000E88703C43C040000070F1810100B070DE2
:104BF0001010080000808C4C3800000000000000FD
:104C000000000000000000000000000000000000A4
:104C1000000000000000000000000000000080E034
:104C2000300804000000000000FEFF01000000004A
:104C3000000000000000030F1820400000040830AE
:104C4000E0800000000000000000000001FFFE0006
:104C500000000000004020180F03000000000000CA
:104C6000000000000000C000000000000042666676
:104C70003C18FF183C66664200000000000003007C
:104C800000000000000000000000800000000000A4
:104C9000001010101010FF10101010100000000075
:104CA0000000030000000000000000000000000001
:104CB00000000000000000000000000000000000F4
:104CC00000808C4C38000000000000000000000054
:104CD0000000000000000000001010101010101064
:104CE0001010100000000000000000000000000094
:104CF00000000000000000000000000000000000B4
:104D0000000000000000000000001C1C1C0000004F
:104D1000000000000000000000000000E0380C006F
:104D20000000000080701C03000000000060380ECE
:104D30000100000000000000000080C06020206032
:104D4000C080000000FEFF010000000001FFFE0027
:104D50000001070E181010180E07010000008080D7
:104D600080C0E000000000000000000000FFFF0025
:104D70000000000000001010101F1F101010000095
:104D80000080402020202060C0800000000303003D
:104D9000804020381F070000001C1A191818181826
:104DA000181F00000080C020202060C0800000008C
:104DB000000303001010182FE780000000070F10F9
:104DC000101010180F070000000000000000C0E0E5
:104DD000F000000000C0B088868180FFFF80800066
:104DE000000000000010101F1F1010000000E06005
:104DF000606060606060000000003F1008080818F4
:104E0000F0E0000000070B101010101C0F03000052
:104E1000000080C040202020E0C0000000FCFF21F6
:104E20001008080818F0E0000001070C1810101016
:104E3000080F03000000C0E06060606060E0600098
:104E4000000003000000E018070000000000000060
:104E5000001F1F00000000000080C06020202020F4
:104E600060C080000087EF2C1818303068CF8300B6
:104E700000070F0810101010180F07000000C0C026
:104E800020202020C0800000001F3F6040404020C4
:104E900010FFFE0000000C1C101010080F03000093
:104EA0000000000000000000000000000000000002
:104EB000000E0E0E0000000000000000001C1C1C74
:104EC00000000000000000000000000000000000E2
:104ED00000000000000C0C000000000000000000BA
:104EE00000583800000000000000000000000080B2
:104EF0004020100000001028448201000000000043
:104F00000000000000000102040810000000000082
:104F100000000000000000000084848484848484F5
:104F200084848400000000000000000000000000F5
:104F30000000102040800000000000000000000081
:104F40000000018244281000000010080402010043
:104F50000000000000C020201010101030E0C00041
:104F60000003030000F010080C070300000000001D
:104F70001C1C1C0000000000000000C0406020203D
:104F80002040C00000FCFF01F00E03C1FE03807F43
:104F90000001070E081111101109040200000000A1
:104FA00080E0E000000000000000807C4340477F7C
:104FB000F880000010181F1000000000131F1C10C4
:104FC00020E0E02020202060C080000000FFFF10D3
:104FD000101010182FE78000101F1F101010101055
:104FE000180F0700000080C0402020202060E00053
:104FF00000FCFF0100000000000001000001070E9E
:10500000181010100804030020E0E02020202040A9
:10501000C080000000FFFF000000000001FFFE0054
:10502000101F1F10101018080E07010020E0E020CC
:10503000202020202060800000FFFF101010107C36
:1050400000000000101F1F10101010101018060094
:1050500020E0E020202020206060800000FFFF1082
:105060001010107C00000100101F1F100000000035
:1050700000000000000080C06020202040E0000010
:1050800000FCFF0100004040C0C140400001070E8D
:10509000181010100F0F000020E0E02000000000AA
:1050A00020E0E02000FFFF101010101010FFFF00A4
:1050B000101F1F1000000000101F1F1000002020F4
:1050C00020E0E020202000000000000000FFFF00A2
:1050D0000000000000001010101F1F101010000032
:1050E00000000000202020E0E02020200000000040
:1050F000000000FFFF0000000060E0808080C07FB3
:105100003F00000020E0E020000020A06020200000
:1051100000FFFF30187CE3C000000000101F1F10CC
:10512000000001131F1C181020E0E0200000000008
:105130000000000000FFFF00000000000000000071
:10514000101F1F10101010101018060020E0E0E0D3
:1051500000000000E0E0E02000FF013FFEC0E01E94
:1051600001FFFF00101F1000031F0300101F1F107E
:1051700020E0E0C0000000000020E02000FF00036D
:10518000071C78E08000FF00101F100000000000E6
:10519000030F1F00000080C060202060C08000005E
:1051A00000FEFF010000000000FFFE000001070EEE
:1051B000181010180C07010020E0E020202020200B
:1051C00060C0800000FFFF2020202020301F0F0043
:1051D000101F1F100000000000000000000080C031
:1051E00060202060C080000000FEFF010000000081
:1051F00000FFFE000001070E1111133C7C67210027
:1052000020E0E0202020202060C0800000FFFF1070
:105210001030F0D0080F0700101F1F10000000030F
:105220000F1C10100080C060202020204040E000B3
:1052300000070F0C1818303060E08100001F0C08C8
:1052400010101010180F07008060202020E0E020D0
:10525000202060800100000000FFFF00000000012E
:1052600000000000101F1F100000000020E0E020E0
:10527000000000000020E02000FFFF000000000010
:105280000000FF0000070F18101010101008070092
:105290002060E0E02000000020E060200000077FA8
:1052A000F88000807C03000000000000071F1C073E
:1052B0000000000020E0E02000E0E0200020E020EE
:1052C0000007FFF8E01FFFFCE01F00000000031FC5
:1052D0000300011F03000000002060E0A000002088
:1052E000E0602000000000038F7CF8C60100000091
:1052F0000010181E130001171F1810002060E0E0B6
:105300002000000020E06020000001073EF8E018C7
:105310000700000000000010101F1F101000000008
:1053200000806020202020A0E0E02000000000009D
:10533000C0F03E0F0300000000101C1F17101010DB
:10534000101806000000000000FC0404040404001F
:105350000000000000FF000000000000000000004E
:10536000007F404040404000000010E0000000008E
:105370000000000000000000031C6080000000002E
:1053800000000000000000030C7080000000040416
:10539000040404FC0000000000000000000000FF06
:1053A00000000000000040404040407F000000003E
:1053B00000000010080C040C0810000000000000A1
:1053C00000000000000000000000000000000000DD
:1053D00000000000000000000000000000000000CD
:1053E00000000000000000000000000080808080BD
:1053F0008080808080808080000000040408080095
:10540000000000000000000000000000000000009C
:10541000000000000000000000000000000000008C
:105420000000000000000000000098D8446424241C
:10543000FCF80000000F1F18101010081F1F101894
:105440000020E0F000000000000000000000FFFF6E
:10545000180804040CF8F00000001F0F18101010BA
:10546000180F030000000000000000000000000012
:1054700000E0F8180404043C3800000000030F0C9E
:1054800010101010080600000000000000000020AE
:10549000E0F0000000E0F81C04040408FFFF000036
:1054A00000030F18101010081F0F08000000000064
:1054B00000000000000000000000E0F84844444400
:1054C0004C7870000000030F0C1810101008040036
:1054D0000000000080C0602020E0C0000004040440
:1054E000FFFF040404040000000010101F1F101030
:1054F000100000000000000000000000000000009C
:10550000000070F88C04048CF874040C007076CFE2
:105510008D8D8D89C87870000020E0F000000000BB
:10552000000000000000FFFF08040404FCF8000075
:1055300000101F1F100000101F1F100000000000AF
:1055400000606000000000000000040404FCFC0097
:105550000000000000001010101F1F1010100000AD
:10556000000000000000006060000000000000007B
:10557000040404FCFC0000000000C0C08080C07F68
:105580003F0000000020E0F00000000000000000EC
:105590000000FFFF80C0F41C0404000000101F1F67
:1055A0001100031F1C1010000000202020E0F0005C
:1055B000000000000000000000FFFF0000000000ED
:1055C00000001010101F1F1010100000000000003D
:1055D000000000000000000004FCFC0804FCFC08C3
:1055E00004FCFC00101F1F10001F1F10001F1F10C5
:1055F0000000000000000000000000000004FCFCAF
:1056000008080404FCF8000000101F1F1000001020
:105610001F1F10000000000000000000000000003C
:1056200000E0F0180C04040C18F0E00000030F0C6C
:10563000101010100C0F030000000000000000000C
:10564000000000000004FCFC080404040CF8F00056
:105650000080FFFF889010101C0F03000000000066
:10566000000000000000000000E0F81C0404040832
:10567000F8FC000000030F1810109088FFFF800056
:10568000000000000000000000000000040404FC12
:10569000FC100804040C0C001010101F1F10101038
:1056A00000000000000000000000000000000000FA
:1056B00000003078CCC48484840C1C0000001E18C8
:1056C00010101011190F06000000000000C00000AB
:1056D0000000000000040404FFFF040404000000B4
:1056E000000000000F1F1010100C00000000000050
:1056F00000000000000000000004FCFE00000004A8
:10570000FCFE000000000F1F181010081F0F0800FB
:1057100000000000000000000000000000040C3C3D
:10572000FCC40000C43C0C0400000000010F1E0E6D
:105730000100000000000000000000000000000068
:10574000043CFCC400E47CFC84807C040000071F53
:10575000070000071F070000000000000000000015
:10576000000000000004041C7CE4C0341C0404009D
:105770000010101C1601131F1C1810000000000060
:10578000000000000000000000040C3CFCC400C449
:105790003C0404000000C080C1370E01000000007E
:1057A00000000000000000000000000000001C04D9
:1057B00004C4F47C1C0400000000101C1F1711100E
:1057C00010180E0000000000000000F80C0400009B
:1057D00000000000001028EF0000000000000000A2
:1057E0000000003F60400000000000000000FF00DB
:1057F00000000000000000000000FF0000000000AA
:10580000000000000000FF00000000000000040C89
:10581000F80000000000000000000000EF28100069
:1058200000000000000040603F0000000000000099
:1058300000180602020408102020300800000000B2
:105840000000000000000000000000000000000058
:105850000000000008070000F40100000001000043
:1058600008030000F4010000000100000807000028
:10587000F401000000010000010000000000000031
:105880000000000000000000000000001000000008
:105890000001000003000000000000003400C441CB
:1058A00008070900020000001F4E00000100000070
:1058B00000000000000000000400000018000000CC
:1058C0000030000020202020000000000000000028
:1058D000F058000000002020080000002001000017
:1058E000F8580000080020201010000048010000B7
:0858F0000100000000000000AF
:04000005000000C136
:00000001FF
